{
  "_format": "hh-sol-artifact-1",
  "contractName": "Lottery",
  "sourceName": "contracts/Lottery.sol",
  "abi": [
    {
      "inputs": [
        {
          "internalType": "uint256",
          "name": "_minimumBet",
          "type": "uint256"
        }
      ],
      "stateMutability": "nonpayable",
      "type": "constructor"
    },
    {
      "inputs": [],
      "name": "enter",
      "outputs": [],
      "stateMutability": "payable",
      "type": "function"
    },
    {
      "inputs": [],
      "name": "getPlayers",
      "outputs": [
        {
          "internalType": "address payable[]",
          "name": "",
          "type": "address[]"
        }
      ],
      "stateMutability": "view",
      "type": "function"
    },
    {
      "inputs": [],
      "name": "manager",
      "outputs": [
        {
          "internalType": "address",
          "name": "",
          "type": "address"
        }
      ],
      "stateMutability": "view",
      "type": "function"
    },
    {
      "inputs": [],
      "name": "minimumBet",
      "outputs": [
        {
          "internalType": "uint256",
          "name": "",
          "type": "uint256"
        }
      ],
      "stateMutability": "view",
      "type": "function"
    },
    {
      "inputs": [
        {
          "internalType": "uint256",
          "name": "",
          "type": "uint256"
        }
      ],
      "name": "players",
      "outputs": [
        {
          "internalType": "address payable",
          "name": "",
          "type": "address"
        }
      ],
      "stateMutability": "view",
      "type": "function"
    },
    {
      "inputs": [],
      "name": "randomSeed",
      "outputs": [
        {
          "internalType": "uint256",
          "name": "",
          "type": "uint256"
        }
      ],
      "stateMutability": "view",
      "type": "function"
    },
    {
      "inputs": [],
      "name": "selectWinner",
      "outputs": [],
      "stateMutability": "nonpayable",
      "type": "function"
    },
    {
      "inputs": [],
      "name": "startTime",
      "outputs": [
        {
          "internalType": "uint256",
          "name": "",
          "type": "uint256"
        }
      ],
      "stateMutability": "view",
      "type": "function"
    },
    {
      "inputs": [],
      "name": "winningIndex",
      "outputs": [
        {
          "internalType": "uint256",
          "name": "",
          "type": "uint256"
        }
      ],
      "stateMutability": "view",
      "type": "function"
    }
  ],
  "bytecode": "0x608060405234801561001057600080fd5b50604051610d79380380610d79833981810160405281019061003291906100c2565b33600160006101000a81548173ffffffffffffffffffffffffffffffffffffffff021916908373ffffffffffffffffffffffffffffffffffffffff1602179055508060028190555042600581905550506100ef565b600080fd5b6000819050919050565b61009f8161008c565b81146100aa57600080fd5b50565b6000815190506100bc81610096565b92915050565b6000602082840312156100d8576100d7610087565b5b60006100e6848285016100ad565b91505092915050565b610c7b806100fe6000396000f3fe6080604052600436106100865760003560e01c80638b5b9ccc116100595780638b5b9ccc14610123578063c38a8afd1461014e578063de75be4e14610179578063e97dcb62146101a4578063f71d96cb146101ae57610086565b80630b747d911461008b57806333a99e04146100b6578063481c6a75146100cd57806378e97925146100f8575b600080fd5b34801561009757600080fd5b506100a06101eb565b6040516100ad9190610710565b60405180910390f35b3480156100c257600080fd5b506100cb6101f1565b005b3480156100d957600080fd5b506100e26103cd565b6040516100ef919061076c565b60405180910390f35b34801561010457600080fd5b5061010d6103f3565b60405161011a9190610710565b60405180910390f35b34801561012f57600080fd5b506101386103f9565b6040516101459190610857565b60405180910390f35b34801561015a57600080fd5b50610163610487565b6040516101709190610710565b60405180910390f35b34801561018557600080fd5b5061018e61048d565b60405161019b9190610710565b60405180910390f35b6101ac610493565b005b3480156101ba57600080fd5b506101d560048036038101906101d091906108aa565b61053d565b6040516101e291906108e6565b60405180910390f35b60035481565b600160009054906101000a900473ffffffffffffffffffffffffffffffffffffffff1673ffffffffffffffffffffffffffffffffffffffff163373ffffffffffffffffffffffffffffffffffffffff1614610281576040517f08c379a000000000000000000000000000000000000000000000000000000000815260040161027890610984565b60405180910390fd5b60008080549050116102c8576040517f08c379a00000000000000000000000000000000000000000000000000000000081526004016102bf906109f0565b60405180910390fd5b6102d660008054905061057c565b6004819055506000600454815481106102f2576102f1610a10565b5b9060005260206000200160009054906101000a900473ffffffffffffffffffffffffffffffffffffffff1673ffffffffffffffffffffffffffffffffffffffff166108fc479081150290604051600060405180830381858888f19350505050158015610362573d6000803e3d6000fd5b50600067ffffffffffffffff81111561037e5761037d610a3f565b5b6040519080825280602002602001820160405280156103ac5781602001602082028036833780820191505090505b50600090805190602001906103c2929190610650565b506000600581905550565b600160009054906101000a900473ffffffffffffffffffffffffffffffffffffffff1681565b60055481565b6060600080548060200260200160405190810160405280929190818152602001828054801561047d57602002820191906000526020600020905b8160009054906101000a900473ffffffffffffffffffffffffffffffffffffffff1673ffffffffffffffffffffffffffffffffffffffff1681526020019060010190808311610433575b5050505050905090565b60025481565b60045481565b6002543410156104d8576040517f08c379a00000000000000000000000000000000000000000000000000000000081526004016104cf90610aba565b60405180910390fd5b6000339080600181540180825580915050600190039060005260206000200160009091909190916101000a81548173ffffffffffffffffffffffffffffffffffffffff021916908373ffffffffffffffffffffffffffffffffffffffff160217905550565b6000818154811061054d57600080fd5b906000526020600020016000915054906101000a900473ffffffffffffffffffffffffffffffffffffffff1681565b6000806000801b90505b6000801b810361059f576105986105b6565b9050610586565b828160001c6105ae9190610b09565b915050919050565b600080600554116105fc576040517f08c379a00000000000000000000000000000000000000000000000000000000081526004016105f390610b86565b60405180910390fd5b60006005544261060c9190610bd5565b905060008103610622576000801b91505061064d565b806040516020016106339190610c2a565b604051602081830303815290604052805190602001209150505b90565b8280548282559060005260206000209081019282156106c9579160200282015b828111156106c85782518260006101000a81548173ffffffffffffffffffffffffffffffffffffffff021916908373ffffffffffffffffffffffffffffffffffffffff16021790555091602001919060010190610670565b5b5090506106d691906106da565b5090565b5b808211156106f35760008160009055506001016106db565b5090565b6000819050919050565b61070a816106f7565b82525050565b60006020820190506107256000830184610701565b92915050565b600073ffffffffffffffffffffffffffffffffffffffff82169050919050565b60006107568261072b565b9050919050565b6107668161074b565b82525050565b6000602082019050610781600083018461075d565b92915050565b600081519050919050565b600082825260208201905092915050565b6000819050602082019050919050565b60006107be8261072b565b9050919050565b6107ce816107b3565b82525050565b60006107e083836107c5565b60208301905092915050565b6000602082019050919050565b600061080482610787565b61080e8185610792565b9350610819836107a3565b8060005b8381101561084a57815161083188826107d4565b975061083c836107ec565b92505060018101905061081d565b5085935050505092915050565b6000602082019050818103600083015261087181846107f9565b905092915050565b600080fd5b610887816106f7565b811461089257600080fd5b50565b6000813590506108a48161087e565b92915050565b6000602082840312156108c0576108bf610879565b5b60006108ce84828501610895565b91505092915050565b6108e0816107b3565b82525050565b60006020820190506108fb60008301846108d7565b92915050565b600082825260208201905092915050565b7f4f6e6c7920746865206d616e616765722063616e20706572666f726d2074686960008201527f7320616374696f6e2e0000000000000000000000000000000000000000000000602082015250565b600061096e602983610901565b915061097982610912565b604082019050919050565b6000602082019050818103600083015261099d81610961565b9050919050565b7f4e6f20706c617965727320656e74657265642e00000000000000000000000000600082015250565b60006109da601383610901565b91506109e5826109a4565b602082019050919050565b60006020820190508181036000830152610a09816109cd565b9050919050565b7f4e487b7100000000000000000000000000000000000000000000000000000000600052603260045260246000fd5b7f4e487b7100000000000000000000000000000000000000000000000000000000600052604160045260246000fd5b7f4d696e696d756d20626574206e6f74206d65742e000000000000000000000000600082015250565b6000610aa4601483610901565b9150610aaf82610a6e565b602082019050919050565b60006020820190508181036000830152610ad381610a97565b9050919050565b7f4e487b7100000000000000000000000000000000000000000000000000000000600052601260045260246000fd5b6000610b14826106f7565b9150610b1f836106f7565b925082610b2f57610b2e610ada565b5b828206905092915050565b7f4c6f747465727920686173206e6f742073746172746564207965740000000000600082015250565b6000610b70601b83610901565b9150610b7b82610b3a565b602082019050919050565b60006020820190508181036000830152610b9f81610b63565b9050919050565b7f4e487b7100000000000000000000000000000000000000000000000000000000600052601160045260246000fd5b6000610be0826106f7565b9150610beb836106f7565b9250828203905081811115610c0357610c02610ba6565b5b92915050565b6000819050919050565b610c24610c1f826106f7565b610c09565b82525050565b6000610c368284610c13565b6020820191508190509291505056fea2646970667358221220a02965a1d025af29ada3e25df9d2557b92d6ef6174a6456d432aefbcdc8830f464736f6c63430008120033",
  "linkReferences": {},
  "deployedLinkReferences": {}
}