{
  "_format": "hh-sol-artifact-1",
  "contractName": "Lottery",
  "sourceName": "contracts/Lottery.sol",
  "abi": [
    {
      "inputs": [
        {
          "internalType": "uint256",
          "name": "_minimumBet",
          "type": "uint256"
        }
      ],
      "stateMutability": "nonpayable",
      "type": "constructor"
    },
    {
      "inputs": [],
      "name": "enter",
      "outputs": [],
      "stateMutability": "payable",
      "type": "function"
    },
    {
      "inputs": [],
      "name": "getPlayers",
      "outputs": [
        {
          "internalType": "address payable[]",
          "name": "",
          "type": "address[]"
        }
      ],
      "stateMutability": "view",
      "type": "function"
    },
    {
      "inputs": [],
      "name": "manager",
      "outputs": [
        {
          "internalType": "address",
          "name": "",
          "type": "address"
        }
      ],
      "stateMutability": "view",
      "type": "function"
    },
    {
      "inputs": [],
      "name": "minimumBet",
      "outputs": [
        {
          "internalType": "uint256",
          "name": "",
          "type": "uint256"
        }
      ],
      "stateMutability": "view",
      "type": "function"
    },
    {
      "inputs": [
        {
          "internalType": "uint256",
          "name": "",
          "type": "uint256"
        }
      ],
      "name": "players",
      "outputs": [
        {
          "internalType": "address payable",
          "name": "",
          "type": "address"
        }
      ],
      "stateMutability": "view",
      "type": "function"
    },
    {
      "inputs": [],
      "name": "randomSeed",
      "outputs": [
        {
          "internalType": "uint256",
          "name": "",
          "type": "uint256"
        }
      ],
      "stateMutability": "view",
      "type": "function"
    },
    {
      "inputs": [],
      "name": "selectWinner",
      "outputs": [],
      "stateMutability": "nonpayable",
      "type": "function"
    },
    {
      "inputs": [],
      "name": "winningIndex",
      "outputs": [
        {
          "internalType": "uint256",
          "name": "",
          "type": "uint256"
        }
      ],
      "stateMutability": "view",
      "type": "function"
    }
  ],
  "bytecode": "0x608060405234801561001057600080fd5b50604051610cf0380380610cf0833981810160405281019061003291906100c2565b33600160006101000a81548173ffffffffffffffffffffffffffffffffffffffff021916908373ffffffffffffffffffffffffffffffffffffffff1602179055508060028190555042600381905550506100ef565b600080fd5b6000819050919050565b61009f8161008c565b81146100aa57600080fd5b50565b6000815190506100bc81610096565b92915050565b6000602082840312156100d8576100d7610087565b5b60006100e6848285016100ad565b91505092915050565b610bf2806100fe6000396000f3fe60806040526004361061007b5760003560e01c8063c38a8afd1161004e578063c38a8afd14610118578063de75be4e14610143578063e97dcb621461016e578063f71d96cb146101785761007b565b80630b747d911461008057806333a99e04146100ab578063481c6a75146100c25780638b5b9ccc146100ed575b600080fd5b34801561008c57600080fd5b506100956101b5565b6040516100a2919061067f565b60405180910390f35b3480156100b757600080fd5b506100c06101bb565b005b3480156100ce57600080fd5b506100d7610416565b6040516100e491906106db565b60405180910390f35b3480156100f957600080fd5b5061010261043c565b60405161010f91906107c6565b60405180910390f35b34801561012457600080fd5b5061012d6104ca565b60405161013a919061067f565b60405180910390f35b34801561014f57600080fd5b506101586104d0565b604051610165919061067f565b60405180910390f35b6101766104d6565b005b34801561018457600080fd5b5061019f600480360381019061019a9190610819565b610580565b6040516101ac9190610855565b60405180910390f35b60035481565b600160009054906101000a900473ffffffffffffffffffffffffffffffffffffffff1673ffffffffffffffffffffffffffffffffffffffff163373ffffffffffffffffffffffffffffffffffffffff161461024b576040517f08c379a0000000000000000000000000000000000000000000000000000000008152600401610242906108f3565b60405180910390fd5b6000808054905011610292576040517f08c379a00000000000000000000000000000000000000000000000000000000081526004016102899061095f565b60405180910390fd5b60006001436102a191906109ae565b406003546040516020016102b6929190610a2e565b604051602081830303815290604052805190602001209050600080805490508260001c6102e39190610a89565b90508060048190555060006004548154811061030257610301610aba565b5b9060005260206000200160009054906101000a900473ffffffffffffffffffffffffffffffffffffffff1673ffffffffffffffffffffffffffffffffffffffff166108fc479081150290604051600060405180830381858888f19350505050158015610372573d6000803e3d6000fd5b50600067ffffffffffffffff81111561038e5761038d610ae9565b5b6040519080825280602002602001820160405280156103bc5781602001602082028036833780820191505090505b50600090805190602001906103d29291906105bf565b50816001436103e191906109ae565b406040516020016103f3929190610b27565b6040516020818303038152906040528051906020012060001c6003819055505050565b600160009054906101000a900473ffffffffffffffffffffffffffffffffffffffff1681565b606060008054806020026020016040519081016040528092919081815260200182805480156104c057602002820191906000526020600020905b8160009054906101000a900473ffffffffffffffffffffffffffffffffffffffff1673ffffffffffffffffffffffffffffffffffffffff1681526020019060010190808311610476575b5050505050905090565b60025481565b60045481565b60025434101561051b576040517f08c379a000000000000000000000000000000000000000000000000000000000815260040161051290610b9c565b60405180910390fd5b6000339080600181540180825580915050600190039060005260206000200160009091909190916101000a81548173ffffffffffffffffffffffffffffffffffffffff021916908373ffffffffffffffffffffffffffffffffffffffff160217905550565b6000818154811061059057600080fd5b906000526020600020016000915054906101000a900473ffffffffffffffffffffffffffffffffffffffff1681565b828054828255906000526020600020908101928215610638579160200282015b828111156106375782518260006101000a81548173ffffffffffffffffffffffffffffffffffffffff021916908373ffffffffffffffffffffffffffffffffffffffff160217905550916020019190600101906105df565b5b5090506106459190610649565b5090565b5b8082111561066257600081600090555060010161064a565b5090565b6000819050919050565b61067981610666565b82525050565b60006020820190506106946000830184610670565b92915050565b600073ffffffffffffffffffffffffffffffffffffffff82169050919050565b60006106c58261069a565b9050919050565b6106d5816106ba565b82525050565b60006020820190506106f060008301846106cc565b92915050565b600081519050919050565b600082825260208201905092915050565b6000819050602082019050919050565b600061072d8261069a565b9050919050565b61073d81610722565b82525050565b600061074f8383610734565b60208301905092915050565b6000602082019050919050565b6000610773826106f6565b61077d8185610701565b935061078883610712565b8060005b838110156107b95781516107a08882610743565b97506107ab8361075b565b92505060018101905061078c565b5085935050505092915050565b600060208201905081810360008301526107e08184610768565b905092915050565b600080fd5b6107f681610666565b811461080157600080fd5b50565b600081359050610813816107ed565b92915050565b60006020828403121561082f5761082e6107e8565b5b600061083d84828501610804565b91505092915050565b61084f81610722565b82525050565b600060208201905061086a6000830184610846565b92915050565b600082825260208201905092915050565b7f4f6e6c7920746865206d616e616765722063616e20706572666f726d2074686960008201527f7320616374696f6e2e0000000000000000000000000000000000000000000000602082015250565b60006108dd602983610870565b91506108e882610881565b604082019050919050565b6000602082019050818103600083015261090c816108d0565b9050919050565b7f4e6f20706c617965727320656e74657265642e00000000000000000000000000600082015250565b6000610949601383610870565b915061095482610913565b602082019050919050565b600060208201905081810360008301526109788161093c565b9050919050565b7f4e487b7100000000000000000000000000000000000000000000000000000000600052601160045260246000fd5b60006109b982610666565b91506109c483610666565b92508282039050818111156109dc576109db61097f565b5b92915050565b6000819050919050565b6000819050919050565b610a07610a02826109e2565b6109ec565b82525050565b6000819050919050565b610a28610a2382610666565b610a0d565b82525050565b6000610a3a82856109f6565b602082019150610a4a8284610a17565b6020820191508190509392505050565b7f4e487b7100000000000000000000000000000000000000000000000000000000600052601260045260246000fd5b6000610a9482610666565b9150610a9f83610666565b925082610aaf57610aae610a5a565b5b828206905092915050565b7f4e487b7100000000000000000000000000000000000000000000000000000000600052603260045260246000fd5b7f4e487b7100000000000000000000000000000000000000000000000000000000600052604160045260246000fd5b610b21816109e2565b82525050565b6000604082019050610b3c6000830185610b18565b610b496020830184610b18565b9392505050565b7f4d696e696d756d20626574206e6f74206d65742e000000000000000000000000600082015250565b6000610b86601483610870565b9150610b9182610b50565b602082019050919050565b60006020820190508181036000830152610bb581610b79565b905091905056fea264697066735822122043988c107bd31f6aa6e78e50ada3948d79768fc008731b3a6b423313e13a1c4064736f6c63430008120033",
  "linkReferences": {},
  "deployedLinkReferences": {}
}